{
  "_format": "hh-sol-artifact-1",
  "contractName": "LobbyTracker",
  "sourceName": "blockchain/contracts/Vault/LobbyTracker.sol",
  "abi": [
    {
      "inputs": [
        {
          "internalType": "address",
          "name": "_tokenAddress",
          "type": "address"
        }
      ],
      "stateMutability": "nonpayable",
      "type": "constructor"
    },
    {
      "anonymous": false,
      "inputs": [
        {
          "indexed": true,
          "internalType": "address",
          "name": "previousOwner",
          "type": "address"
        },
        {
          "indexed": true,
          "internalType": "address",
          "name": "newOwner",
          "type": "address"
        }
      ],
      "name": "OwnershipTransferred",
      "type": "event"
    },
    {
      "inputs": [
        {
          "internalType": "uint256",
          "name": "id",
          "type": "uint256"
        }
      ],
      "name": "abortGame",
      "outputs": [],
      "stateMutability": "nonpayable",
      "type": "function"
    },
    {
      "inputs": [],
      "name": "activeLobbies",
      "outputs": [
        {
          "components": [
            {
              "internalType": "bool",
              "name": "waiting",
              "type": "bool"
            },
            {
              "internalType": "bool",
              "name": "active",
              "type": "bool"
            },
            {
              "internalType": "address[]",
              "name": "players",
              "type": "address[]"
            },
            {
              "internalType": "uint256[]",
              "name": "deposits",
              "type": "uint256[]"
            },
            {
              "internalType": "uint256",
              "name": "minBet",
              "type": "uint256"
            },
            {
              "internalType": "uint256",
              "name": "maxPlayers",
              "type": "uint256"
            }
          ],
          "internalType": "struct LobbyTracker.Lobby[]",
          "name": "",
          "type": "tuple[]"
        },
        {
          "internalType": "uint256[]",
          "name": "",
          "type": "uint256[]"
        }
      ],
      "stateMutability": "view",
      "type": "function"
    },
    {
      "inputs": [
        {
          "internalType": "uint256",
          "name": "id",
          "type": "uint256"
        }
      ],
      "name": "activePlayers",
      "outputs": [
        {
          "internalType": "uint256",
          "name": "",
          "type": "uint256"
        }
      ],
      "stateMutability": "view",
      "type": "function"
    },
    {
      "inputs": [
        {
          "internalType": "uint256",
          "name": "minBet",
          "type": "uint256"
        },
        {
          "internalType": "uint256",
          "name": "deposit",
          "type": "uint256"
        },
        {
          "internalType": "uint256",
          "name": "maxPlayers",
          "type": "uint256"
        }
      ],
      "name": "createLobby",
      "outputs": [],
      "stateMutability": "nonpayable",
      "type": "function"
    },
    {
      "inputs": [
        {
          "internalType": "uint256",
          "name": "amount",
          "type": "uint256"
        }
      ],
      "name": "deposit",
      "outputs": [],
      "stateMutability": "nonpayable",
      "type": "function"
    },
    {
      "inputs": [
        {
          "internalType": "address",
          "name": "",
          "type": "address"
        }
      ],
      "name": "deposits",
      "outputs": [
        {
          "internalType": "uint256",
          "name": "",
          "type": "uint256"
        }
      ],
      "stateMutability": "view",
      "type": "function"
    },
    {
      "inputs": [
        {
          "internalType": "uint256",
          "name": "id",
          "type": "uint256"
        },
        {
          "internalType": "bool[]",
          "name": "increment",
          "type": "bool[]"
        },
        {
          "internalType": "uint256[]",
          "name": "amount",
          "type": "uint256[]"
        }
      ],
      "name": "disseminate",
      "outputs": [],
      "stateMutability": "nonpayable",
      "type": "function"
    },
    {
      "inputs": [
        {
          "internalType": "uint256",
          "name": "lobbyId",
          "type": "uint256"
        },
        {
          "internalType": "address",
          "name": "player",
          "type": "address"
        }
      ],
      "name": "ejectPlayer",
      "outputs": [],
      "stateMutability": "nonpayable",
      "type": "function"
    },
    {
      "inputs": [
        {
          "internalType": "uint256",
          "name": "id",
          "type": "uint256"
        }
      ],
      "name": "inProgress",
      "outputs": [
        {
          "internalType": "bool",
          "name": "",
          "type": "bool"
        }
      ],
      "stateMutability": "view",
      "type": "function"
    },
    {
      "inputs": [
        {
          "internalType": "uint256",
          "name": "lobbyId",
          "type": "uint256"
        },
        {
          "internalType": "uint256",
          "name": "amount",
          "type": "uint256"
        }
      ],
      "name": "increaseDeposit",
      "outputs": [],
      "stateMutability": "nonpayable",
      "type": "function"
    },
    {
      "inputs": [
        {
          "internalType": "uint256",
          "name": "id",
          "type": "uint256"
        },
        {
          "internalType": "address",
          "name": "player",
          "type": "address"
        }
      ],
      "name": "isJoinable",
      "outputs": [
        {
          "internalType": "bool",
          "name": "",
          "type": "bool"
        }
      ],
      "stateMutability": "view",
      "type": "function"
    },
    {
      "inputs": [
        {
          "internalType": "uint256",
          "name": "lobbyId",
          "type": "uint256"
        },
        {
          "internalType": "uint256",
          "name": "deposit",
          "type": "uint256"
        }
      ],
      "name": "joinLobby",
      "outputs": [],
      "stateMutability": "nonpayable",
      "type": "function"
    },
    {
      "inputs": [],
      "name": "joinableLobbies",
      "outputs": [
        {
          "components": [
            {
              "internalType": "bool",
              "name": "waiting",
              "type": "bool"
            },
            {
              "internalType": "bool",
              "name": "active",
              "type": "bool"
            },
            {
              "internalType": "address[]",
              "name": "players",
              "type": "address[]"
            },
            {
              "internalType": "uint256[]",
              "name": "deposits",
              "type": "uint256[]"
            },
            {
              "internalType": "uint256",
              "name": "minBet",
              "type": "uint256"
            },
            {
              "internalType": "uint256",
              "name": "maxPlayers",
              "type": "uint256"
            }
          ],
          "internalType": "struct LobbyTracker.Lobby[]",
          "name": "",
          "type": "tuple[]"
        },
        {
          "internalType": "uint256[]",
          "name": "",
          "type": "uint256[]"
        }
      ],
      "stateMutability": "view",
      "type": "function"
    },
    {
      "inputs": [
        {
          "internalType": "uint256",
          "name": "id",
          "type": "uint256"
        }
      ],
      "name": "leader",
      "outputs": [
        {
          "internalType": "address",
          "name": "",
          "type": "address"
        }
      ],
      "stateMutability": "view",
      "type": "function"
    },
    {
      "inputs": [
        {
          "internalType": "uint256",
          "name": "lobbyId",
          "type": "uint256"
        }
      ],
      "name": "leaveLobby",
      "outputs": [],
      "stateMutability": "nonpayable",
      "type": "function"
    },
    {
      "inputs": [
        {
          "internalType": "uint256",
          "name": "",
          "type": "uint256"
        }
      ],
      "name": "lobbies",
      "outputs": [
        {
          "internalType": "bool",
          "name": "waiting",
          "type": "bool"
        },
        {
          "internalType": "bool",
          "name": "active",
          "type": "bool"
        },
        {
          "internalType": "uint256",
          "name": "minBet",
          "type": "uint256"
        },
        {
          "internalType": "uint256",
          "name": "maxPlayers",
          "type": "uint256"
        }
      ],
      "stateMutability": "view",
      "type": "function"
    },
    {
      "inputs": [
        {
          "internalType": "uint256",
          "name": "id",
          "type": "uint256"
        }
      ],
      "name": "lobby",
      "outputs": [
        {
          "components": [
            {
              "internalType": "bool",
              "name": "waiting",
              "type": "bool"
            },
            {
              "internalType": "bool",
              "name": "active",
              "type": "bool"
            },
            {
              "internalType": "address[]",
              "name": "players",
              "type": "address[]"
            },
            {
              "internalType": "uint256[]",
              "name": "deposits",
              "type": "uint256[]"
            },
            {
              "internalType": "uint256",
              "name": "minBet",
              "type": "uint256"
            },
            {
              "internalType": "uint256",
              "name": "maxPlayers",
              "type": "uint256"
            }
          ],
          "internalType": "struct LobbyTracker.Lobby",
          "name": "",
          "type": "tuple"
        }
      ],
      "stateMutability": "view",
      "type": "function"
    },
    {
      "inputs": [],
      "name": "numLobbies",
      "outputs": [
        {
          "internalType": "uint256",
          "name": "",
          "type": "uint256"
        }
      ],
      "stateMutability": "view",
      "type": "function"
    },
    {
      "inputs": [],
      "name": "owner",
      "outputs": [
        {
          "internalType": "address",
          "name": "",
          "type": "address"
        }
      ],
      "stateMutability": "view",
      "type": "function"
    },
    {
      "inputs": [],
      "name": "renounceOwnership",
      "outputs": [],
      "stateMutability": "nonpayable",
      "type": "function"
    },
    {
      "inputs": [
        {
          "internalType": "address",
          "name": "_tokenAddress",
          "type": "address"
        }
      ],
      "name": "setToken",
      "outputs": [],
      "stateMutability": "nonpayable",
      "type": "function"
    },
    {
      "inputs": [
        {
          "internalType": "uint256",
          "name": "id",
          "type": "uint256"
        }
      ],
      "name": "startGame",
      "outputs": [],
      "stateMutability": "nonpayable",
      "type": "function"
    },
    {
      "inputs": [
        {
          "internalType": "uint256",
          "name": "id",
          "type": "uint256"
        },
        {
          "internalType": "address",
          "name": "player",
          "type": "address"
        }
      ],
      "name": "stat",
      "outputs": [
        {
          "internalType": "bool",
          "name": "isPlayer",
          "type": "bool"
        },
        {
          "internalType": "uint256",
          "name": "playerId",
          "type": "uint256"
        },
        {
          "internalType": "uint256",
          "name": "deposit",
          "type": "uint256"
        },
        {
          "internalType": "bool",
          "name": "isLeading",
          "type": "bool"
        }
      ],
      "stateMutability": "view",
      "type": "function"
    },
    {
      "inputs": [],
      "name": "tokenAddress",
      "outputs": [
        {
          "internalType": "address",
          "name": "",
          "type": "address"
        }
      ],
      "stateMutability": "view",
      "type": "function"
    },
    {
      "inputs": [
        {
          "internalType": "address",
          "name": "newOwner",
          "type": "address"
        }
      ],
      "name": "transferOwnership",
      "outputs": [],
      "stateMutability": "nonpayable",
      "type": "function"
    },
    {
      "inputs": [
        {
          "internalType": "uint256",
          "name": "amount",
          "type": "uint256"
        }
      ],
      "name": "withdraw",
      "outputs": [],
      "stateMutability": "nonpayable",
      "type": "function"
    }
  ],
  "bytecode": "0x60806040523480156200001157600080fd5b5060405162003a3c38038062003a3c8339818101604052810190620000379190620002b5565b80620000586200004c6200007160201b60201c565b6200007960201b60201c565b62000069816200013d60201b60201c565b50506200036a565b600033905090565b60008060009054906101000a900473ffffffffffffffffffffffffffffffffffffffff169050816000806101000a81548173ffffffffffffffffffffffffffffffffffffffff021916908373ffffffffffffffffffffffffffffffffffffffff1602179055508173ffffffffffffffffffffffffffffffffffffffff168173ffffffffffffffffffffffffffffffffffffffff167f8be0079c531659141344cd1fd0a4f28419497f9722a3daafe3b4186f6b6457e060405160405180910390a35050565b6200014d6200019160201b60201c565b80600260006101000a81548173ffffffffffffffffffffffffffffffffffffffff021916908373ffffffffffffffffffffffffffffffffffffffff16021790555050565b620001a16200007160201b60201c565b73ffffffffffffffffffffffffffffffffffffffff16620001c76200022260201b60201c565b73ffffffffffffffffffffffffffffffffffffffff161462000220576040517f08c379a0000000000000000000000000000000000000000000000000000000008152600401620002179062000348565b60405180910390fd5b565b60008060009054906101000a900473ffffffffffffffffffffffffffffffffffffffff16905090565b600080fd5b600073ffffffffffffffffffffffffffffffffffffffff82169050919050565b60006200027d8262000250565b9050919050565b6200028f8162000270565b81146200029b57600080fd5b50565b600081519050620002af8162000284565b92915050565b600060208284031215620002ce57620002cd6200024b565b5b6000620002de848285016200029e565b91505092915050565b600082825260208201905092915050565b7f4f776e61626c653a2063616c6c6572206973206e6f7420746865206f776e6572600082015250565b600062000330602083620002e7565b91506200033d82620002f8565b602082019050919050565b60006020820190508181036000830152620003638162000321565b9050919050565b6136c2806200037a6000396000f3fe608060405234801561001057600080fd5b506004361061018e5760003560e01c8063948428f0116100de578063c6c0c99b11610097578063f18bf94711610071578063f18bf94714610473578063f2fde38b146104a3578063fc7e286d146104bf578063fd28e705146104ef5761018e565b8063c6c0c99b14610408578063e5ed1d591461043b578063e76b7303146104575761018e565b8063948428f0146103475780639d76ea58146103635780639e231e2d14610381578063b55f108f1461039d578063b6b55f25146103cd578063c3275375146103e95761018e565b8063658cdd731161014b5780637040957f116101255780637040957f146102e4578063715018a61461030357806388c58c391461030d5780638da5cb5b146103295761018e565b8063658cdd731461026557806368ad13ab146102815780636e8fb4c6146102b15761018e565b80630508bcb414610193578063144fa6d7146101c35780632e1a7d4d146101df5780632ee3707d146101fb5780634e26b0cd1461021957806352e2ecfb14610249575b600080fd5b6101ad60048036038101906101a8919061254a565b61050b565b6040516101ba91906125b8565b60405180910390f35b6101dd60048036038101906101d891906125ff565b6105b0565b005b6101f960048036038101906101f4919061254a565b6105fc565b005b6102036108d5565b604051610210919061263b565b60405180910390f35b610233600480360381019061022e919061254a565b6108db565b6040516102409190612671565b60405180910390f35b610263600480360381019061025e919061268c565b610911565b005b61027f600480360381019061027a91906126cc565b610b78565b005b61029b6004803603810190610296919061254a565b610da8565b6040516102a8919061293a565b60405180910390f35b6102cb60048036038101906102c6919061254a565b610f05565b6040516102db949392919061295c565b60405180910390f35b6102ec610f4f565b6040516102fa929190612b62565b60405180910390f35b61030b6110d0565b005b61032760048036038101906103229190612b99565b6110e4565b005b61033161128a565b60405161033e91906125b8565b60405180910390f35b610361600480360381019061035c919061254a565b6112b3565b005b61036b61167d565b60405161037891906125b8565b60405180910390f35b61039b6004803603810190610396919061254a565b6116a3565b005b6103b760048036038101906103b2919061254a565b6117ee565b6040516103c4919061263b565b60405180910390f35b6103e760048036038101906103e2919061254a565b611873565b005b6103f1611999565b6040516103ff929190612b62565b60405180910390f35b610422600480360381019061041d919061268c565b611b1c565b6040516104329493929190612bd9565b60405180910390f35b6104556004803603810190610450919061254a565b611c86565b005b610471600480360381019061046c9190612e66565b611d72565b005b61048d6004803603810190610488919061268c565b611f8b565b60405161049a9190612671565b60405180910390f35b6104bd60048036038101906104b891906125ff565b612079565b005b6104d960048036038101906104d491906125ff565b6120fc565b6040516104e6919061263b565b60405180910390f35b61050960048036038101906105049190612b99565b612114565b005b6000806000805b600161051d86610da8565b606001515161052c9190612f20565b81116105a557600061053d86610da8565b60600151828151811061055357610552612f54565b5b602002602001015190508281106105915761056d86610da8565b60400151828151811061058357610582612f54565b5b602002602001015193508092505b50808061059d90612f83565b915050610512565b508192505050919050565b6105b861221c565b80600260006101000a81548173ffffffffffffffffffffffffffffffffffffffff021916908373ffffffffffffffffffffffffffffffffffffffff16021790555050565b8060008111610640576040517f08c379a000000000000000000000000000000000000000000000000000000000815260040161063790613028565b60405180910390fd5b600160003373ffffffffffffffffffffffffffffffffffffffff1673ffffffffffffffffffffffffffffffffffffffff168152602001908152602001600020548211156106c2576040517f08c379a00000000000000000000000000000000000000000000000000000000081526004016106b990613028565b60405180910390fd5b816106cb61229a565b73ffffffffffffffffffffffffffffffffffffffff1663dd62ed3e30306040518363ffffffff1660e01b8152600401610705929190613048565b602060405180830381865afa158015610722573d6000803e3d6000fd5b505050506040513d601f19601f820116820180604052508101906107469190613086565b10156107f35761075461229a565b73ffffffffffffffffffffffffffffffffffffffff1663095ea7b3307fffffffffffffffffffffffffffffffffffffffffffffffffffffffffffffffff6040518363ffffffff1660e01b81526004016107ae9291906130f8565b6020604051808303816000875af11580156107cd573d6000803e3d6000fd5b505050506040513d601f19601f820116820180604052508101906107f19190613136565b505b6107fb61229a565b73ffffffffffffffffffffffffffffffffffffffff166323b872dd3033856040518463ffffffff1660e01b815260040161083793929190613163565b6020604051808303816000875af1158015610856573d6000803e3d6000fd5b505050506040513d601f19601f8201168201806040525081019061087a9190613136565b5081600160003373ffffffffffffffffffffffffffffffffffffffff1673ffffffffffffffffffffffffffffffffffffffff16815260200190815260200160002060008282546108ca9190612f20565b925050819055505050565b60045481565b60008015156108e983610da8565b602001511515036108fd576000905061090c565b6001610908836117ee565b1190505b919050565b61091961221c565b6000806000806109298686611b1c565b9350935093509350600115158415151480156109455750600082115b610984576040517f08c379a000000000000000000000000000000000000000000000000000000000815260040161097b906131e6565b60405180910390fd5b60006103e8836109949190613235565b9050600081846109a49190612f20565b905060006109b1896117ee565b905083806109d057506109c3896108db565b80156109cf5750600281115b5b15610a865781600160008a73ffffffffffffffffffffffffffffffffffffffff1673ffffffffffffffffffffffffffffffffffffffff1681526020019081526020016000206000828254610a249190613266565b9250508190555082600160003373ffffffffffffffffffffffffffffffffffffffff1673ffffffffffffffffffffffffffffffffffffffff1681526020019081526020016000206000828254610a7a9190613266565b92505081905550610add565b84600160008a73ffffffffffffffffffffffffffffffffffffffff1673ffffffffffffffffffffffffffffffffffffffff1681526020019081526020016000206000828254610ad59190613266565b925050819055505b6000600360008b81526020019081526020016000206002018781548110610b0757610b06612f54565b5b906000526020600020018190555060028103610b3457610b2f89610b2a8b61050b565b610911565b610b6d565b60018103610b6c576000600360008b815260200190815260200160002060000160016101000a81548160ff0219169083151502179055505b5b505050505050505050565b600160003373ffffffffffffffffffffffffffffffffffffffff1673ffffffffffffffffffffffffffffffffffffffff16815260200190815260200160002054821115610bfa576040517f08c379a0000000000000000000000000000000000000000000000000000000008152600401610bf1906132e6565b60405180910390fd5b81831115610c3d576040517f08c379a0000000000000000000000000000000000000000000000000000000008152600401610c3490613352565b60405180910390fd5b81600160003373ffffffffffffffffffffffffffffffffffffffff1673ffffffffffffffffffffffffffffffffffffffff1681526020019081526020016000206000828254610c8c9190612f20565b9250508190555060046000815480929190610ca690612f83565b91905055506000600360006004548152602001908152602001600020905060018160000160006101000a81548160ff02191690831515021790555080600101339080600181540180825580915050600190039060005260206000200160009091909190916101000a81548173ffffffffffffffffffffffffffffffffffffffff021916908373ffffffffffffffffffffffffffffffffffffffff16021790555080600201839080600181540180825580915050600190039060005260206000200160009091909190915055838160030181905550600c8210610d8b57600c9150610d99565b60028211610d9857600291505b5b81816004018190555050505050565b610db0612390565b600360008381526020019081526020016000206040518060c00160405290816000820160009054906101000a900460ff161515151581526020016000820160019054906101000a900460ff1615151515815260200160018201805480602002602001604051908101604052809291908181526020018280548015610e8957602002820191906000526020600020905b8160009054906101000a900473ffffffffffffffffffffffffffffffffffffffff1673ffffffffffffffffffffffffffffffffffffffff1681526020019060010190808311610e3f575b5050505050815260200160028201805480602002602001604051908101604052809291908181526020018280548015610ee157602002820191906000526020600020905b815481526020019060010190808311610ecd575b50505050508152602001600382015481526020016004820154815250509050919050565b60036020528060005260406000206000915090508060000160009054906101000a900460ff16908060000160019054906101000a900460ff16908060030154908060040154905084565b606080600080600190505b6004548111610f9357610f6c816108db565b15610f80578180610f7c90612f83565b9250505b8080610f8b90612f83565b915050610f5a565b5060008167ffffffffffffffff811115610fb057610faf612c34565b5b604051908082528060200260200182016040528015610fde5781602001602082028036833780820191505090505b50905060008267ffffffffffffffff811115610ffd57610ffc612c34565b5b60405190808252806020026020018201604052801561103657816020015b611023612390565b81526020019060019003908161101b5790505b509050600080600190505b60045481116110c157611053816108db565b156110ae5761106181610da8565b83838151811061107457611073612f54565b5b60200260200101819052508084838151811061109357611092612f54565b5b60200260200101818152505081806110aa90612f83565b9250505b80806110b990612f83565b915050611041565b50818395509550505050509091565b6110d861221c565b6110e260006122c4565b565b6110ee8233611f8b565b61112d576040517f08c379a0000000000000000000000000000000000000000000000000000000008152600401611124906133be565b60405180910390fd5b61113682610da8565b6080015181101561117c576040517f08c379a000000000000000000000000000000000000000000000000000000000815260040161117390613352565b60405180910390fd5b80600160003373ffffffffffffffffffffffffffffffffffffffff1673ffffffffffffffffffffffffffffffffffffffff16815260200190815260200160002060008282546111cb9190612f20565b9250508190555060036000838152602001908152602001600020600101339080600181540180825580915050600190039060005260206000200160009091909190916101000a81548173ffffffffffffffffffffffffffffffffffffffff021916908373ffffffffffffffffffffffffffffffffffffffff160217905550600360008381526020019081526020016000206002018190806001815401808255809150506001900390600052602060002001600090919091909150555050565b60008060009054906101000a900473ffffffffffffffffffffffffffffffffffffffff16905090565b60008060006112c28433611b1c565b5092509250925082611309576040517f08c379a00000000000000000000000000000000000000000000000000000000081526004016113009061342a565b60405180910390fd5b6000151561131685610da8565b60200151151514801561133957506001151561133185610da8565b600001511515145b611378576040517f08c379a000000000000000000000000000000000000000000000000000000000815260040161136f90613496565b60405180910390fd5b80600160003373ffffffffffffffffffffffffffffffffffffffff1673ffffffffffffffffffffffffffffffffffffffff16815260200190815260200160002060008282546113c79190613266565b9250508190555060016113d9856117ee565b036114515760036000858152602001908152602001600020600080820160006101000a81549060ff02191690556000820160016101000a81549060ff021916905560018201600061142a91906123ca565b60028201600061143a91906123eb565b600382016000905560048201600090555050611677565b600060036000868152602001908152602001600020600201805490509050600060018261147e9190612f20565b67ffffffffffffffff81111561149757611496612c34565b5b6040519080825280602002602001820160405280156114c55781602001602082028036833780820191505090505b50905060006001836114d79190612f20565b67ffffffffffffffff8111156114f0576114ef612c34565b5b60405190808252806020026020018201604052801561151e5781602001602082028036833780820191505090505b5090506000805b6001856115329190612f20565b811161161b578681146116085761154889610da8565b60600151818151811061155e5761155d612f54565b5b602002602001015184838151811061157957611578612f54565b5b60200260200101818152505061158e89610da8565b6040015181815181106115a4576115a3612f54565b5b60200260200101518383815181106115bf576115be612f54565b5b602002602001019073ffffffffffffffffffffffffffffffffffffffff16908173ffffffffffffffffffffffffffffffffffffffff1681525050818061160490612f83565b9250505b808061161390612f83565b915050611525565b5082600360008a8152602001908152602001600020600201908051906020019061164692919061240c565b5081600360008a81526020019081526020016000206001019080519060200190611671929190612459565b50505050505b50505050565b600260009054906101000a900473ffffffffffffffffffffffffffffffffffffffff1681565b6116ab61221c565b60006116b682610da8565b60400151905060005b600182516116cd9190612f20565b81116117ba5760008282815181106116e8576116e7612f54565b5b602002602001015190506116fb84610da8565b60600151828151811061171157611710612f54565b5b6020026020010151600160008373ffffffffffffffffffffffffffffffffffffffff1673ffffffffffffffffffffffffffffffffffffffff16815260200190815260200160002060008282546117679190613266565b92505081905550600060036000868152602001908152602001600020600201838154811061179857611797612f54565b5b90600052602060002001819055505080806117b290612f83565b9150506116bf565b5060006003600084815260200190815260200160002060000160016101000a81548160ff0219169083151502179055505050565b6000806000905060005b600161180385610da8565b60600151516118129190612f20565b811161186957600061182385610da8565b60600151828151811061183957611838612f54565b5b6020026020010151111561185657818061185290612f83565b9250505b808061186190612f83565b9150506117f8565b5080915050919050565b80600081116118b7576040517f08c379a00000000000000000000000000000000000000000000000000000000081526004016118ae90613028565b60405180910390fd5b6118bf61229a565b73ffffffffffffffffffffffffffffffffffffffff166323b872dd3330856040518463ffffffff1660e01b81526004016118fb93929190613163565b6020604051808303816000875af115801561191a573d6000803e3d6000fd5b505050506040513d601f19601f8201168201806040525081019061193e9190613136565b5081600160003373ffffffffffffffffffffffffffffffffffffffff1673ffffffffffffffffffffffffffffffffffffffff168152602001908152602001600020600082825461198e9190613266565b925050819055505050565b606080600080600190505b60045481116119de576119b78133611f8b565b156119cb5781806119c790612f83565b9250505b80806119d690612f83565b9150506119a4565b5060008167ffffffffffffffff8111156119fb576119fa612c34565b5b604051908082528060200260200182016040528015611a295781602001602082028036833780820191505090505b50905060008267ffffffffffffffff811115611a4857611a47612c34565b5b604051908082528060200260200182016040528015611a8157816020015b611a6e612390565b815260200190600190039081611a665790505b509050600080600190505b6004548111611b0d57611a9f8133611f8b565b15611afa57611aad81610da8565b838381518110611ac057611abf612f54565b5b602002602001018190525080848381518110611adf57611ade612f54565b5b6020026020010181815250508180611af690612f83565b9250505b8080611b0590612f83565b915050611a8c565b50818395509550505050509091565b6000806000806000611b2d87610da8565b60400151511115611c6c5760005b6001611b4688610da8565b6040015151611b559190612f20565b8111611c6657611b6487610da8565b604001518181518110611b7a57611b79612f54565b5b602002602001015173ffffffffffffffffffffffffffffffffffffffff168673ffffffffffffffffffffffffffffffffffffffff1603611c53576001945080935060019150611bc887610da8565b606001518181518110611bde57611bdd612f54565b5b6020026020010151925060005b6001611bf689610da8565b6040015151611c059190612f20565b8111611c515783611c1589610da8565b606001518381518110611c2b57611c2a612f54565b5b60200260200101511115611c3e57600092505b8080611c4990612f83565b915050611beb565b505b8080611c5e90612f83565b915050611b3b565b50611c7d565b600093506000925060009150600090505b92959194509250565b611c8e61221c565b6001611c99826117ee565b118015611cb6575060001515611cae82610da8565b602001511515145b8015611cd2575060011515611cca82610da8565b600001511515145b611d11576040517f08c379a0000000000000000000000000000000000000000000000000000000008152600401611d0890613502565b60405180910390fd5b60016003600083815260200190815260200160002060000160016101000a81548160ff02191690831515021790555060006003600083815260200190815260200160002060000160006101000a81548160ff02191690831515021790555050565b611d7a61221c565b60001515611d8784610da8565b600001511515148015611daa575060011515611da284610da8565b602001511515145b611de9576040517f08c379a0000000000000000000000000000000000000000000000000000000008152600401611de090613502565b60405180910390fd5b81518151148015611e075750611dfe83610da8565b60400151518151145b611e46576040517f08c379a0000000000000000000000000000000000000000000000000000000008152600401611e3d9061356e565b60405180910390fd5b60005b60018251611e579190612f20565b8111611f625760011515838281518110611e7457611e73612f54565b5b6020026020010151151503611eeb57818181518110611e9657611e95612f54565b5b6020026020010151600360008681526020019081526020016000206002018281548110611ec657611ec5612f54565b5b906000526020600020016000828254611edf9190613266565b92505081905550611f4f565b818181518110611efe57611efd612f54565b5b6020026020010151600360008681526020019081526020016000206002018281548110611f2e57611f2d612f54565b5b906000526020600020016000828254611f479190612f20565b925050819055505b8080611f5a90612f83565b915050611e49565b506001611f6e846117ee565b03611f8657611f8583611f808561050b565b610911565b5b505050565b600080611f988484611b1c565b5050509050611fa684610da8565b60a00151611fb385610da8565b6040015151101580611fd257506000611fcb85610da8565b6040015151145b80611fe65750611fe184610da8565b602001515b80612001575060001515611ff985610da8565b600001511515145b806120095750805b8061205e575061201884610da8565b60800151600160008573ffffffffffffffffffffffffffffffffffffffff1673ffffffffffffffffffffffffffffffffffffffff16815260200190815260200160002054105b1561206d576000915050612073565b60019150505b92915050565b61208161221c565b600073ffffffffffffffffffffffffffffffffffffffff168173ffffffffffffffffffffffffffffffffffffffff16036120f0576040517f08c379a00000000000000000000000000000000000000000000000000000000081526004016120e790613600565b60405180910390fd5b6120f9816122c4565b50565b60016020528060005260406000206000915090505481565b60008060006121238533611b1c565b509250925092508280156121375750600081115b612176576040517f08c379a000000000000000000000000000000000000000000000000000000000815260040161216d906131e6565b60405180910390fd5b83600160003373ffffffffffffffffffffffffffffffffffffffff1673ffffffffffffffffffffffffffffffffffffffff16815260200190815260200160002060008282546121c59190612f20565b92505081905550836003600087815260200190815260200160002060020183815481106121f5576121f4612f54565b5b90600052602060002001600082825461220e9190613266565b925050819055505050505050565b612224612388565b73ffffffffffffffffffffffffffffffffffffffff1661224261128a565b73ffffffffffffffffffffffffffffffffffffffff1614612298576040517f08c379a000000000000000000000000000000000000000000000000000000000815260040161228f9061366c565b60405180910390fd5b565b6000600260009054906101000a900473ffffffffffffffffffffffffffffffffffffffff16905090565b60008060009054906101000a900473ffffffffffffffffffffffffffffffffffffffff169050816000806101000a81548173ffffffffffffffffffffffffffffffffffffffff021916908373ffffffffffffffffffffffffffffffffffffffff1602179055508173ffffffffffffffffffffffffffffffffffffffff168173ffffffffffffffffffffffffffffffffffffffff167f8be0079c531659141344cd1fd0a4f28419497f9722a3daafe3b4186f6b6457e060405160405180910390a35050565b600033905090565b6040518060c00160405280600015158152602001600015158152602001606081526020016060815260200160008152602001600081525090565b50805460008255906000526020600020908101906123e891906124e3565b50565b508054600082559060005260206000209081019061240991906124e3565b50565b828054828255906000526020600020908101928215612448579160200282015b8281111561244757825182559160200191906001019061242c565b5b50905061245591906124e3565b5090565b8280548282559060005260206000209081019282156124d2579160200282015b828111156124d15782518260006101000a81548173ffffffffffffffffffffffffffffffffffffffff021916908373ffffffffffffffffffffffffffffffffffffffff16021790555091602001919060010190612479565b5b5090506124df91906124e3565b5090565b5b808211156124fc5760008160009055506001016124e4565b5090565b6000604051905090565b600080fd5b600080fd5b6000819050919050565b61252781612514565b811461253257600080fd5b50565b6000813590506125448161251e565b92915050565b6000602082840312156125605761255f61250a565b5b600061256e84828501612535565b91505092915050565b600073ffffffffffffffffffffffffffffffffffffffff82169050919050565b60006125a282612577565b9050919050565b6125b281612597565b82525050565b60006020820190506125cd60008301846125a9565b92915050565b6125dc81612597565b81146125e757600080fd5b50565b6000813590506125f9816125d3565b92915050565b6000602082840312156126155761261461250a565b5b6000612623848285016125ea565b91505092915050565b61263581612514565b82525050565b6000602082019050612650600083018461262c565b92915050565b60008115159050919050565b61266b81612656565b82525050565b60006020820190506126866000830184612662565b92915050565b600080604083850312156126a3576126a261250a565b5b60006126b185828601612535565b92505060206126c2858286016125ea565b9150509250929050565b6000806000606084860312156126e5576126e461250a565b5b60006126f386828701612535565b935050602061270486828701612535565b925050604061271586828701612535565b9150509250925092565b61272881612656565b82525050565b600081519050919050565b600082825260208201905092915050565b6000819050602082019050919050565b61276381612597565b82525050565b6000612775838361275a565b60208301905092915050565b6000602082019050919050565b60006127998261272e565b6127a38185612739565b93506127ae8361274a565b8060005b838110156127df5781516127c68882612769565b97506127d183612781565b9250506001810190506127b2565b5085935050505092915050565b600081519050919050565b600082825260208201905092915050565b6000819050602082019050919050565b61282181612514565b82525050565b60006128338383612818565b60208301905092915050565b6000602082019050919050565b6000612857826127ec565b61286181856127f7565b935061286c83612808565b8060005b8381101561289d5781516128848882612827565b975061288f8361283f565b925050600181019050612870565b5085935050505092915050565b600060c0830160008301516128c2600086018261271f565b5060208301516128d5602086018261271f565b50604083015184820360408601526128ed828261278e565b91505060608301518482036060860152612907828261284c565b915050608083015161291c6080860182612818565b5060a083015161292f60a0860182612818565b508091505092915050565b6000602082019050818103600083015261295481846128aa565b905092915050565b60006080820190506129716000830187612662565b61297e6020830186612662565b61298b604083018561262c565b612998606083018461262c565b95945050505050565b600081519050919050565b600082825260208201905092915050565b6000819050602082019050919050565b600060c0830160008301516129e5600086018261271f565b5060208301516129f8602086018261271f565b5060408301518482036040860152612a10828261278e565b91505060608301518482036060860152612a2a828261284c565b9150506080830151612a3f6080860182612818565b5060a0830151612a5260a0860182612818565b508091505092915050565b6000612a6983836129cd565b905092915050565b6000602082019050919050565b6000612a89826129a1565b612a9381856129ac565b935083602082028501612aa5856129bd565b8060005b85811015612ae15784840389528151612ac28582612a5d565b9450612acd83612a71565b925060208a01995050600181019050612aa9565b50829750879550505050505092915050565b600082825260208201905092915050565b6000612b0f826127ec565b612b198185612af3565b9350612b2483612808565b8060005b83811015612b55578151612b3c8882612827565b9750612b478361283f565b925050600181019050612b28565b5085935050505092915050565b60006040820190508181036000830152612b7c8185612a7e565b90508181036020830152612b908184612b04565b90509392505050565b60008060408385031215612bb057612baf61250a565b5b6000612bbe85828601612535565b9250506020612bcf85828601612535565b9150509250929050565b6000608082019050612bee6000830187612662565b612bfb602083018661262c565b612c08604083018561262c565b612c156060830184612662565b95945050505050565b600080fd5b6000601f19601f8301169050919050565b7f4e487b7100000000000000000000000000000000000000000000000000000000600052604160045260246000fd5b612c6c82612c23565b810181811067ffffffffffffffff82111715612c8b57612c8a612c34565b5b80604052505050565b6000612c9e612500565b9050612caa8282612c63565b919050565b600067ffffffffffffffff821115612cca57612cc9612c34565b5b602082029050602081019050919050565b600080fd5b612ce981612656565b8114612cf457600080fd5b50565b600081359050612d0681612ce0565b92915050565b6000612d1f612d1a84612caf565b612c94565b90508083825260208201905060208402830185811115612d4257612d41612cdb565b5b835b81811015612d6b5780612d578882612cf7565b845260208401935050602081019050612d44565b5050509392505050565b600082601f830112612d8a57612d89612c1e565b5b8135612d9a848260208601612d0c565b91505092915050565b600067ffffffffffffffff821115612dbe57612dbd612c34565b5b602082029050602081019050919050565b6000612de2612ddd84612da3565b612c94565b90508083825260208201905060208402830185811115612e0557612e04612cdb565b5b835b81811015612e2e5780612e1a8882612535565b845260208401935050602081019050612e07565b5050509392505050565b600082601f830112612e4d57612e4c612c1e565b5b8135612e5d848260208601612dcf565b91505092915050565b600080600060608486031215612e7f57612e7e61250a565b5b6000612e8d86828701612535565b935050602084013567ffffffffffffffff811115612eae57612ead61250f565b5b612eba86828701612d75565b925050604084013567ffffffffffffffff811115612edb57612eda61250f565b5b612ee786828701612e38565b9150509250925092565b7f4e487b7100000000000000000000000000000000000000000000000000000000600052601160045260246000fd5b6000612f2b82612514565b9150612f3683612514565b9250828203905081811115612f4e57612f4d612ef1565b5b92915050565b7f4e487b7100000000000000000000000000000000000000000000000000000000600052603260045260246000fd5b6000612f8e82612514565b91507fffffffffffffffffffffffffffffffffffffffffffffffffffffffffffffffff8203612fc057612fbf612ef1565b5b600182019050919050565b600082825260208201905092915050565b7f496e76616c696420416d6f756e74000000000000000000000000000000000000600082015250565b6000613012600e83612fcb565b915061301d82612fdc565b602082019050919050565b6000602082019050818103600083015261304181613005565b9050919050565b600060408201905061305d60008301856125a9565b61306a60208301846125a9565b9392505050565b6000815190506130808161251e565b92915050565b60006020828403121561309c5761309b61250a565b5b60006130aa84828501613071565b91505092915050565b6000819050919050565b6000819050919050565b60006130e26130dd6130d8846130b3565b6130bd565b612514565b9050919050565b6130f2816130c7565b82525050565b600060408201905061310d60008301856125a9565b61311a60208301846130e9565b9392505050565b60008151905061313081612ce0565b92915050565b60006020828403121561314c5761314b61250a565b5b600061315a84828501613121565b91505092915050565b600060608201905061317860008301866125a9565b61318560208301856125a9565b613192604083018461262c565b949350505050565b7f21616374697665506c6179657200000000000000000000000000000000000000600082015250565b60006131d0600d83612fcb565b91506131db8261319a565b602082019050919050565b600060208201905081810360008301526131ff816131c3565b9050919050565b7f4e487b7100000000000000000000000000000000000000000000000000000000600052601260045260246000fd5b600061324082612514565b915061324b83612514565b92508261325b5761325a613206565b5b828204905092915050565b600061327182612514565b915061327c83612514565b925082820190508082111561329457613293612ef1565b5b92915050565b7f6465706f736974203e20696e457363726f770000000000000000000000000000600082015250565b60006132d0601283612fcb565b91506132db8261329a565b602082019050919050565b600060208201905081810360008301526132ff816132c3565b9050919050565b7f6465706f736974203c206d696e42657400000000000000000000000000000000600082015250565b600061333c601083612fcb565b915061334782613306565b602082019050919050565b6000602082019050818103600083015261336b8161332f565b9050919050565b7f4e6f74204a6f696e61626c650000000000000000000000000000000000000000600082015250565b60006133a8600c83612fcb565b91506133b382613372565b602082019050919050565b600060208201905081810360008301526133d78161339b565b9050919050565b7f21706c6179657200000000000000000000000000000000000000000000000000600082015250565b6000613414600783612fcb565b915061341f826133de565b602082019050919050565b6000602082019050818103600083015261344381613407565b9050919050565b7f67616d6541637469766500000000000000000000000000000000000000000000600082015250565b6000613480600a83612fcb565b915061348b8261344a565b602082019050919050565b600060208201905081810360008301526134af81613473565b9050919050565b7f696e617070726f70726961746554696d696e6700000000000000000000000000600082015250565b60006134ec601383612fcb565b91506134f7826134b6565b602082019050919050565b6000602082019050818103600083015261351b816134df565b9050919050565b7f6261645265717565737400000000000000000000000000000000000000000000600082015250565b6000613558600a83612fcb565b915061356382613522565b602082019050919050565b600060208201905081810360008301526135878161354b565b9050919050565b7f4f776e61626c653a206e6577206f776e657220697320746865207a65726f206160008201527f6464726573730000000000000000000000000000000000000000000000000000602082015250565b60006135ea602683612fcb565b91506135f58261358e565b604082019050919050565b60006020820190508181036000830152613619816135dd565b9050919050565b7f4f776e61626c653a2063616c6c6572206973206e6f7420746865206f776e6572600082015250565b6000613656602083612fcb565b915061366182613620565b602082019050919050565b6000602082019050818103600083015261368581613649565b905091905056fea2646970667358221220adf42f7429674ada7a7d0aa0aef6e1cd9893953027337a801399f1e08add97a564736f6c63430008110033",
  "linkReferences": {},
  "deployedLinkReferences": {}
}